{
  "contractName": "TurpleToken",
  "abi": [
    {
      "inputs": [],
      "stateMutability": "nonpayable",
      "type": "constructor"
    },
    {
      "anonymous": false,
      "inputs": [
        {
          "indexed": true,
          "internalType": "address",
          "name": "owner",
          "type": "address"
        },
        {
          "indexed": true,
          "internalType": "address",
          "name": "spender",
          "type": "address"
        },
        {
          "indexed": false,
          "internalType": "uint256",
          "name": "value",
          "type": "uint256"
        }
      ],
      "name": "Approval",
      "type": "event"
    },
    {
      "anonymous": false,
      "inputs": [
        {
          "indexed": false,
          "internalType": "uint256",
          "name": "mintAmount",
          "type": "uint256"
        }
      ],
      "name": "MintFaucet",
      "type": "event"
    },
    {
      "anonymous": false,
      "inputs": [
        {
          "indexed": true,
          "internalType": "address",
          "name": "from",
          "type": "address"
        },
        {
          "indexed": true,
          "internalType": "address",
          "name": "to",
          "type": "address"
        },
        {
          "indexed": false,
          "internalType": "uint256",
          "name": "value",
          "type": "uint256"
        }
      ],
      "name": "Transfer",
      "type": "event"
    },
    {
      "inputs": [
        {
          "internalType": "address",
          "name": "owner",
          "type": "address"
        },
        {
          "internalType": "address",
          "name": "spender",
          "type": "address"
        }
      ],
      "name": "allowance",
      "outputs": [
        {
          "internalType": "uint256",
          "name": "",
          "type": "uint256"
        }
      ],
      "stateMutability": "view",
      "type": "function"
    },
    {
      "inputs": [
        {
          "internalType": "address",
          "name": "spender",
          "type": "address"
        },
        {
          "internalType": "uint256",
          "name": "amount",
          "type": "uint256"
        }
      ],
      "name": "approve",
      "outputs": [
        {
          "internalType": "bool",
          "name": "",
          "type": "bool"
        }
      ],
      "stateMutability": "nonpayable",
      "type": "function"
    },
    {
      "inputs": [
        {
          "internalType": "address",
          "name": "account",
          "type": "address"
        }
      ],
      "name": "balanceOf",
      "outputs": [
        {
          "internalType": "uint256",
          "name": "",
          "type": "uint256"
        }
      ],
      "stateMutability": "view",
      "type": "function"
    },
    {
      "inputs": [],
      "name": "decimals",
      "outputs": [
        {
          "internalType": "uint8",
          "name": "",
          "type": "uint8"
        }
      ],
      "stateMutability": "view",
      "type": "function"
    },
    {
      "inputs": [
        {
          "internalType": "address",
          "name": "spender",
          "type": "address"
        },
        {
          "internalType": "uint256",
          "name": "subtractedValue",
          "type": "uint256"
        }
      ],
      "name": "decreaseAllowance",
      "outputs": [
        {
          "internalType": "bool",
          "name": "",
          "type": "bool"
        }
      ],
      "stateMutability": "nonpayable",
      "type": "function"
    },
    {
      "inputs": [
        {
          "internalType": "address",
          "name": "spender",
          "type": "address"
        },
        {
          "internalType": "uint256",
          "name": "addedValue",
          "type": "uint256"
        }
      ],
      "name": "increaseAllowance",
      "outputs": [
        {
          "internalType": "bool",
          "name": "",
          "type": "bool"
        }
      ],
      "stateMutability": "nonpayable",
      "type": "function"
    },
    {
      "inputs": [],
      "name": "name",
      "outputs": [
        {
          "internalType": "string",
          "name": "",
          "type": "string"
        }
      ],
      "stateMutability": "view",
      "type": "function"
    },
    {
      "inputs": [],
      "name": "symbol",
      "outputs": [
        {
          "internalType": "string",
          "name": "",
          "type": "string"
        }
      ],
      "stateMutability": "view",
      "type": "function"
    },
    {
      "inputs": [],
      "name": "totalSupply",
      "outputs": [
        {
          "internalType": "uint256",
          "name": "",
          "type": "uint256"
        }
      ],
      "stateMutability": "view",
      "type": "function"
    },
    {
      "inputs": [
        {
          "internalType": "address",
          "name": "to",
          "type": "address"
        },
        {
          "internalType": "uint256",
          "name": "amount",
          "type": "uint256"
        }
      ],
      "name": "transfer",
      "outputs": [
        {
          "internalType": "bool",
          "name": "",
          "type": "bool"
        }
      ],
      "stateMutability": "nonpayable",
      "type": "function"
    },
    {
      "inputs": [
        {
          "internalType": "address",
          "name": "from",
          "type": "address"
        },
        {
          "internalType": "address",
          "name": "to",
          "type": "address"
        },
        {
          "internalType": "uint256",
          "name": "amount",
          "type": "uint256"
        }
      ],
      "name": "transferFrom",
      "outputs": [
        {
          "internalType": "bool",
          "name": "",
          "type": "bool"
        }
      ],
      "stateMutability": "nonpayable",
      "type": "function"
    },
    {
      "inputs": [
        {
          "internalType": "uint256",
          "name": "amount",
          "type": "uint256"
        }
      ],
      "name": "mintFaucet",
      "outputs": [],
      "stateMutability": "nonpayable",
      "type": "function"
    }
  ],
  "bytecode": "0x60806040523480156200001157600080fd5b506040518060400160405280600c81526020017f547572706c6520546f6b656e00000000000000000000000000000000000000008152506040518060400160405280600381526020017f545250000000000000000000000000000000000000000000000000000000000081525081600390816200008f9190620004b8565b508060049081620000a19190620004b8565b505050620000c1336a52b7d2dcc80cd2e4000000620000c760201b60201c565b620006ba565b600073ffffffffffffffffffffffffffffffffffffffff168273ffffffffffffffffffffffffffffffffffffffff160362000139576040517f08c379a0000000000000000000000000000000000000000000000000000000008152600401620001309062000600565b60405180910390fd5b6200014d600083836200023460201b60201c565b806002600082825462000161919062000651565b92505081905550806000808473ffffffffffffffffffffffffffffffffffffffff1673ffffffffffffffffffffffffffffffffffffffff168152602001908152602001600020600082825401925050819055508173ffffffffffffffffffffffffffffffffffffffff16600073ffffffffffffffffffffffffffffffffffffffff167fddf252ad1be2c89b69c2b068fc378daa952ba7f163c4a11628f55a4df523b3ef836040516200021491906200069d565b60405180910390a362000230600083836200023960201b60201c565b5050565b505050565b505050565b600081519050919050565b7f4e487b7100000000000000000000000000000000000000000000000000000000600052604160045260246000fd5b7f4e487b7100000000000000000000000000000000000000000000000000000000600052602260045260246000fd5b60006002820490506001821680620002c057607f821691505b602082108103620002d657620002d562000278565b5b50919050565b60008190508160005260206000209050919050565b60006020601f8301049050919050565b600082821b905092915050565b600060088302620003407fffffffffffffffffffffffffffffffffffffffffffffffffffffffffffffffff8262000301565b6200034c868362000301565b95508019841693508086168417925050509392505050565b6000819050919050565b6000819050919050565b600062000399620003936200038d8462000364565b6200036e565b62000364565b9050919050565b6000819050919050565b620003b58362000378565b620003cd620003c482620003a0565b8484546200030e565b825550505050565b600090565b620003e4620003d5565b620003f1818484620003aa565b505050565b5b8181101562000419576200040d600082620003da565b600181019050620003f7565b5050565b601f82111562000468576200043281620002dc565b6200043d84620002f1565b810160208510156200044d578190505b620004656200045c85620002f1565b830182620003f6565b50505b505050565b600082821c905092915050565b60006200048d600019846008026200046d565b1980831691505092915050565b6000620004a883836200047a565b9150826002028217905092915050565b620004c3826200023e565b67ffffffffffffffff811115620004df57620004de62000249565b5b620004eb8254620002a7565b620004f88282856200041d565b600060209050601f8311600181146200053057600084156200051b578287015190505b6200052785826200049a565b86555062000597565b601f1984166200054086620002dc565b60005b828110156200056a5784890151825560018201915060208501945060208101905062000543565b868310156200058a578489015162000586601f8916826200047a565b8355505b6001600288020188555050505b505050505050565b600082825260208201905092915050565b7f45524332303a206d696e7420746f20746865207a65726f206164647265737300600082015250565b6000620005e8601f836200059f565b9150620005f582620005b0565b602082019050919050565b600060208201905081810360008301526200061b81620005d9565b9050919050565b7f4e487b7100000000000000000000000000000000000000000000000000000000600052601160045260246000fd5b60006200065e8262000364565b91506200066b8362000364565b925082820190508082111562000686576200068562000622565b5b92915050565b620006978162000364565b82525050565b6000602082019050620006b460008301846200068c565b92915050565b61148980620006ca6000396000f3fe608060405234801561001057600080fd5b50600436106100b45760003560e01c806370a082311161007157806370a08231146101a357806395d89b41146101d3578063a457c2d7146101f1578063a9059cbb14610221578063dd62ed3e14610251578063e168b68914610281576100b4565b806306fdde03146100b9578063095ea7b3146100d757806318160ddd1461010757806323b872dd14610125578063313ce567146101555780633950935114610173575b600080fd5b6100c161029d565b6040516100ce9190610ccd565b60405180910390f35b6100f160048036038101906100ec9190610d88565b61032f565b6040516100fe9190610de3565b60405180910390f35b61010f610352565b60405161011c9190610e0d565b60405180910390f35b61013f600480360381019061013a9190610e28565b61035c565b60405161014c9190610de3565b60405180910390f35b61015d61038b565b60405161016a9190610e97565b60405180910390f35b61018d60048036038101906101889190610d88565b610394565b60405161019a9190610de3565b60405180910390f35b6101bd60048036038101906101b89190610eb2565b6103cb565b6040516101ca9190610e0d565b60405180910390f35b6101db610413565b6040516101e89190610ccd565b60405180910390f35b61020b60048036038101906102069190610d88565b6104a5565b6040516102189190610de3565b60405180910390f35b61023b60048036038101906102369190610d88565b61051c565b6040516102489190610de3565b60405180910390f35b61026b60048036038101906102669190610edf565b61053f565b6040516102789190610e0d565b60405180910390f35b61029b60048036038101906102969190610f1f565b6105c6565b005b6060600380546102ac90610f7b565b80601f01602080910402602001604051908101604052809291908181526020018280546102d890610f7b565b80156103255780601f106102fa57610100808354040283529160200191610325565b820191906000526020600020905b81548152906001019060200180831161030857829003601f168201915b5050505050905090565b60008061033a61060a565b9050610347818585610612565b600191505092915050565b6000600254905090565b60008061036761060a565b90506103748582856107db565b61037f858585610867565b60019150509392505050565b60006012905090565b60008061039f61060a565b90506103c08185856103b1858961053f565b6103bb9190610fdb565b610612565b600191505092915050565b60008060008373ffffffffffffffffffffffffffffffffffffffff1673ffffffffffffffffffffffffffffffffffffffff168152602001908152602001600020549050919050565b60606004805461042290610f7b565b80601f016020809104026020016040519081016040528092919081815260200182805461044e90610f7b565b801561049b5780601f106104705761010080835404028352916020019161049b565b820191906000526020600020905b81548152906001019060200180831161047e57829003601f168201915b5050505050905090565b6000806104b061060a565b905060006104be828661053f565b905083811015610503576040517f08c379a00000000000000000000000000000000000000000000000000000000081526004016104fa90611081565b60405180910390fd5b6105108286868403610612565b60019250505092915050565b60008061052761060a565b9050610534818585610867565b600191505092915050565b6000600160008473ffffffffffffffffffffffffffffffffffffffff1673ffffffffffffffffffffffffffffffffffffffff16815260200190815260200160002060008373ffffffffffffffffffffffffffffffffffffffff1673ffffffffffffffffffffffffffffffffffffffff16815260200190815260200160002054905092915050565b6105d03382610add565b7f82aad598432083b25585240b83f098876b9d56d6bff106118c728e2d0e11119d816040516105ff9190610e0d565b60405180910390a150565b600033905090565b600073ffffffffffffffffffffffffffffffffffffffff168373ffffffffffffffffffffffffffffffffffffffff1603610681576040517f08c379a000000000000000000000000000000000000000000000000000000000815260040161067890611113565b60405180910390fd5b600073ffffffffffffffffffffffffffffffffffffffff168273ffffffffffffffffffffffffffffffffffffffff16036106f0576040517f08c379a00000000000000000000000000000000000000000000000000000000081526004016106e7906111a5565b60405180910390fd5b80600160008573ffffffffffffffffffffffffffffffffffffffff1673ffffffffffffffffffffffffffffffffffffffff16815260200190815260200160002060008473ffffffffffffffffffffffffffffffffffffffff1673ffffffffffffffffffffffffffffffffffffffff168152602001908152602001600020819055508173ffffffffffffffffffffffffffffffffffffffff168373ffffffffffffffffffffffffffffffffffffffff167f8c5be1e5ebec7d5bd14f71427d1e84f3dd0314c0f7b2291e5b200ac8c7c3b925836040516107ce9190610e0d565b60405180910390a3505050565b60006107e7848461053f565b90507fffffffffffffffffffffffffffffffffffffffffffffffffffffffffffffffff81146108615781811015610853576040517f08c379a000000000000000000000000000000000000000000000000000000000815260040161084a90611211565b60405180910390fd5b6108608484848403610612565b5b50505050565b600073ffffffffffffffffffffffffffffffffffffffff168373ffffffffffffffffffffffffffffffffffffffff16036108d6576040517f08c379a00000000000000000000000000000000000000000000000000000000081526004016108cd906112a3565b60405180910390fd5b600073ffffffffffffffffffffffffffffffffffffffff168273ffffffffffffffffffffffffffffffffffffffff1603610945576040517f08c379a000000000000000000000000000000000000000000000000000000000815260040161093c90611335565b60405180910390fd5b610950838383610c33565b60008060008573ffffffffffffffffffffffffffffffffffffffff1673ffffffffffffffffffffffffffffffffffffffff168152602001908152602001600020549050818110156109d6576040517f08c379a00000000000000000000000000000000000000000000000000000000081526004016109cd906113c7565b60405180910390fd5b8181036000808673ffffffffffffffffffffffffffffffffffffffff1673ffffffffffffffffffffffffffffffffffffffff16815260200190815260200160002081905550816000808573ffffffffffffffffffffffffffffffffffffffff1673ffffffffffffffffffffffffffffffffffffffff168152602001908152602001600020600082825401925050819055508273ffffffffffffffffffffffffffffffffffffffff168473ffffffffffffffffffffffffffffffffffffffff167fddf252ad1be2c89b69c2b068fc378daa952ba7f163c4a11628f55a4df523b3ef84604051610ac49190610e0d565b60405180910390a3610ad7848484610c38565b50505050565b600073ffffffffffffffffffffffffffffffffffffffff168273ffffffffffffffffffffffffffffffffffffffff1603610b4c576040517f08c379a0000000000000000000000000000000000000000000000000000000008152600401610b4390611433565b60405180910390fd5b610b5860008383610c33565b8060026000828254610b6a9190610fdb565b92505081905550806000808473ffffffffffffffffffffffffffffffffffffffff1673ffffffffffffffffffffffffffffffffffffffff168152602001908152602001600020600082825401925050819055508173ffffffffffffffffffffffffffffffffffffffff16600073ffffffffffffffffffffffffffffffffffffffff167fddf252ad1be2c89b69c2b068fc378daa952ba7f163c4a11628f55a4df523b3ef83604051610c1b9190610e0d565b60405180910390a3610c2f60008383610c38565b5050565b505050565b505050565b600081519050919050565b600082825260208201905092915050565b60005b83811015610c77578082015181840152602081019050610c5c565b60008484015250505050565b6000601f19601f8301169050919050565b6000610c9f82610c3d565b610ca98185610c48565b9350610cb9818560208601610c59565b610cc281610c83565b840191505092915050565b60006020820190508181036000830152610ce78184610c94565b905092915050565b600080fd5b600073ffffffffffffffffffffffffffffffffffffffff82169050919050565b6000610d1f82610cf4565b9050919050565b610d2f81610d14565b8114610d3a57600080fd5b50565b600081359050610d4c81610d26565b92915050565b6000819050919050565b610d6581610d52565b8114610d7057600080fd5b50565b600081359050610d8281610d5c565b92915050565b60008060408385031215610d9f57610d9e610cef565b5b6000610dad85828601610d3d565b9250506020610dbe85828601610d73565b9150509250929050565b60008115159050919050565b610ddd81610dc8565b82525050565b6000602082019050610df86000830184610dd4565b92915050565b610e0781610d52565b82525050565b6000602082019050610e226000830184610dfe565b92915050565b600080600060608486031215610e4157610e40610cef565b5b6000610e4f86828701610d3d565b9350506020610e6086828701610d3d565b9250506040610e7186828701610d73565b9150509250925092565b600060ff82169050919050565b610e9181610e7b565b82525050565b6000602082019050610eac6000830184610e88565b92915050565b600060208284031215610ec857610ec7610cef565b5b6000610ed684828501610d3d565b91505092915050565b60008060408385031215610ef657610ef5610cef565b5b6000610f0485828601610d3d565b9250506020610f1585828601610d3d565b9150509250929050565b600060208284031215610f3557610f34610cef565b5b6000610f4384828501610d73565b91505092915050565b7f4e487b7100000000000000000000000000000000000000000000000000000000600052602260045260246000fd5b60006002820490506001821680610f9357607f821691505b602082108103610fa657610fa5610f4c565b5b50919050565b7f4e487b7100000000000000000000000000000000000000000000000000000000600052601160045260246000fd5b6000610fe682610d52565b9150610ff183610d52565b925082820190508082111561100957611008610fac565b5b92915050565b7f45524332303a2064656372656173656420616c6c6f77616e63652062656c6f7760008201527f207a65726f000000000000000000000000000000000000000000000000000000602082015250565b600061106b602583610c48565b91506110768261100f565b604082019050919050565b6000602082019050818103600083015261109a8161105e565b9050919050565b7f45524332303a20617070726f76652066726f6d20746865207a65726f2061646460008201527f7265737300000000000000000000000000000000000000000000000000000000602082015250565b60006110fd602483610c48565b9150611108826110a1565b604082019050919050565b6000602082019050818103600083015261112c816110f0565b9050919050565b7f45524332303a20617070726f766520746f20746865207a65726f20616464726560008201527f7373000000000000000000000000000000000000000000000000000000000000602082015250565b600061118f602283610c48565b915061119a82611133565b604082019050919050565b600060208201905081810360008301526111be81611182565b9050919050565b7f45524332303a20696e73756666696369656e7420616c6c6f77616e6365000000600082015250565b60006111fb601d83610c48565b9150611206826111c5565b602082019050919050565b6000602082019050818103600083015261122a816111ee565b9050919050565b7f45524332303a207472616e736665722066726f6d20746865207a65726f20616460008201527f6472657373000000000000000000000000000000000000000000000000000000602082015250565b600061128d602583610c48565b915061129882611231565b604082019050919050565b600060208201905081810360008301526112bc81611280565b9050919050565b7f45524332303a207472616e7366657220746f20746865207a65726f206164647260008201527f6573730000000000000000000000000000000000000000000000000000000000602082015250565b600061131f602383610c48565b915061132a826112c3565b604082019050919050565b6000602082019050818103600083015261134e81611312565b9050919050565b7f45524332303a207472616e7366657220616d6f756e742065786365656473206260008201527f616c616e63650000000000000000000000000000000000000000000000000000602082015250565b60006113b1602683610c48565b91506113bc82611355565b604082019050919050565b600060208201905081810360008301526113e0816113a4565b9050919050565b7f45524332303a206d696e7420746f20746865207a65726f206164647265737300600082015250565b600061141d601f83610c48565b9150611428826113e7565b602082019050919050565b6000602082019050818103600083015261144c81611410565b905091905056fea26469706673582212203762f692a4ff217587d863d2430c6ef26a015c7c88069ec5c828472b5a61006664736f6c63430008110033",
  "immutableReferences": {},
  "source": "// SPDX-License-Identifier: MIT\r\npragma solidity ^0.8.17;\r\n\r\nimport \"@openzeppelin/contracts/token/ERC20/ERC20.sol\";\r\n\r\ncontract TurpleToken is ERC20 {\r\n\r\n    event MintFaucet(uint256 mintAmount);\r\n\r\n    constructor() ERC20(\"Turple Token\", \"TRP\") {\r\n        _mint(msg.sender, 100000000 * 1e18);\r\n    }\r\n\r\n    function mintFaucet(uint256 amount) external {\r\n        _mint(msg.sender, amount);\r\n        emit MintFaucet(amount);\r\n    }\r\n}\r\n",
  "sourcePath": "C:\\Users\\DELL\\Documents\\turple\\smart-contracts\\contracts\\TurpleToken.sol",
  "compiler": {
    "name": "solc",
    "version": "0.8.17+commit.8df45f5f.Emscripten.clang"
  },
  "schemaVersion": "3.4.11",
  "updatedAt": "2023-04-29T06:32:34.413Z",
  "networkType": "ethereum",
  "devdoc": {
    "kind": "dev",
    "methods": {
      "allowance(address,address)": {
        "details": "See {IERC20-allowance}."
      },
      "approve(address,uint256)": {
        "details": "See {IERC20-approve}. NOTE: If `amount` is the maximum `uint256`, the allowance is not updated on `transferFrom`. This is semantically equivalent to an infinite approval. Requirements: - `spender` cannot be the zero address."
      },
      "balanceOf(address)": {
        "details": "See {IERC20-balanceOf}."
      },
      "decimals()": {
        "details": "Returns the number of decimals used to get its user representation. For example, if `decimals` equals `2`, a balance of `505` tokens should be displayed to a user as `5.05` (`505 / 10 ** 2`). Tokens usually opt for a value of 18, imitating the relationship between Ether and Wei. This is the value {ERC20} uses, unless this function is overridden; NOTE: This information is only used for _display_ purposes: it in no way affects any of the arithmetic of the contract, including {IERC20-balanceOf} and {IERC20-transfer}."
      },
      "decreaseAllowance(address,uint256)": {
        "details": "Atomically decreases the allowance granted to `spender` by the caller. This is an alternative to {approve} that can be used as a mitigation for problems described in {IERC20-approve}. Emits an {Approval} event indicating the updated allowance. Requirements: - `spender` cannot be the zero address. - `spender` must have allowance for the caller of at least `subtractedValue`."
      },
      "increaseAllowance(address,uint256)": {
        "details": "Atomically increases the allowance granted to `spender` by the caller. This is an alternative to {approve} that can be used as a mitigation for problems described in {IERC20-approve}. Emits an {Approval} event indicating the updated allowance. Requirements: - `spender` cannot be the zero address."
      },
      "name()": {
        "details": "Returns the name of the token."
      },
      "symbol()": {
        "details": "Returns the symbol of the token, usually a shorter version of the name."
      },
      "totalSupply()": {
        "details": "See {IERC20-totalSupply}."
      },
      "transfer(address,uint256)": {
        "details": "See {IERC20-transfer}. Requirements: - `to` cannot be the zero address. - the caller must have a balance of at least `amount`."
      },
      "transferFrom(address,address,uint256)": {
        "details": "See {IERC20-transferFrom}. Emits an {Approval} event indicating the updated allowance. This is not required by the EIP. See the note at the beginning of {ERC20}. NOTE: Does not update the allowance if the current allowance is the maximum `uint256`. Requirements: - `from` and `to` cannot be the zero address. - `from` must have a balance of at least `amount`. - the caller must have allowance for ``from``'s tokens of at least `amount`."
      }
    },
    "version": 1
  },
  "userdoc": {
    "kind": "user",
    "methods": {},
    "version": 1
  }
}