{
  "contractName": "TurpleCore",
  "abi": [
    {
      "inputs": [
        {
          "internalType": "address",
          "name": "turfleTorken",
          "type": "address"
        }
      ],
      "stateMutability": "nonpayable",
      "type": "constructor"
    },
    {
      "anonymous": false,
      "inputs": [
        {
          "indexed": false,
          "internalType": "uint16",
          "name": "format",
          "type": "uint16"
        },
        {
          "indexed": false,
          "internalType": "uint16",
          "name": "category",
          "type": "uint16"
        },
        {
          "indexed": false,
          "internalType": "uint256",
          "name": "adId",
          "type": "uint256"
        },
        {
          "indexed": false,
          "internalType": "uint256",
          "name": "balance",
          "type": "uint256"
        },
        {
          "indexed": false,
          "internalType": "enum AdvertiserNode.AdState",
          "name": "state",
          "type": "uint8"
        },
        {
          "indexed": false,
          "internalType": "string",
          "name": "metadata",
          "type": "string"
        },
        {
          "indexed": false,
          "internalType": "uint256",
          "name": "createdOn",
          "type": "uint256"
        },
        {
          "indexed": false,
          "internalType": "address",
          "name": "advertiser",
          "type": "address"
        }
      ],
      "name": "AdCreated",
      "type": "event"
    },
    {
      "anonymous": false,
      "inputs": [
        {
          "indexed": false,
          "internalType": "uint256",
          "name": "appId",
          "type": "uint256"
        },
        {
          "indexed": false,
          "internalType": "uint16",
          "name": "format",
          "type": "uint16"
        },
        {
          "indexed": false,
          "internalType": "uint16",
          "name": "category",
          "type": "uint16"
        },
        {
          "indexed": false,
          "internalType": "uint256",
          "name": "claimedReward",
          "type": "uint256"
        },
        {
          "indexed": false,
          "internalType": "string",
          "name": "metadata",
          "type": "string"
        },
        {
          "indexed": false,
          "internalType": "uint256",
          "name": "createdOn",
          "type": "uint256"
        },
        {
          "indexed": false,
          "internalType": "address",
          "name": "publisher",
          "type": "address"
        }
      ],
      "name": "AppCreated",
      "type": "event"
    },
    {
      "anonymous": false,
      "inputs": [
        {
          "indexed": false,
          "internalType": "address",
          "name": "account",
          "type": "address"
        },
        {
          "indexed": false,
          "internalType": "uint256",
          "name": "amount",
          "type": "uint256"
        }
      ],
      "name": "ClaimedValidator",
      "type": "event"
    },
    {
      "anonymous": false,
      "inputs": [
        {
          "indexed": false,
          "internalType": "address",
          "name": "account",
          "type": "address"
        }
      ],
      "name": "ExitValidatorNode",
      "type": "event"
    },
    {
      "anonymous": false,
      "inputs": [
        {
          "indexed": false,
          "internalType": "address",
          "name": "account",
          "type": "address"
        }
      ],
      "name": "JoinValidatorNode",
      "type": "event"
    },
    {
      "anonymous": false,
      "inputs": [
        {
          "indexed": true,
          "internalType": "address",
          "name": "previousOwner",
          "type": "address"
        },
        {
          "indexed": true,
          "internalType": "address",
          "name": "newOwner",
          "type": "address"
        }
      ],
      "name": "OwnershipTransferStarted",
      "type": "event"
    },
    {
      "anonymous": false,
      "inputs": [
        {
          "indexed": true,
          "internalType": "address",
          "name": "previousOwner",
          "type": "address"
        },
        {
          "indexed": true,
          "internalType": "address",
          "name": "newOwner",
          "type": "address"
        }
      ],
      "name": "OwnershipTransferred",
      "type": "event"
    },
    {
      "anonymous": false,
      "inputs": [
        {
          "indexed": false,
          "internalType": "uint256",
          "name": "adId",
          "type": "uint256"
        },
        {
          "indexed": false,
          "internalType": "address",
          "name": "validator",
          "type": "address"
        }
      ],
      "name": "ProposalApproved",
      "type": "event"
    },
    {
      "anonymous": false,
      "inputs": [
        {
          "indexed": false,
          "internalType": "uint256",
          "name": "adId",
          "type": "uint256"
        },
        {
          "indexed": false,
          "internalType": "address",
          "name": "validator",
          "type": "address"
        }
      ],
      "name": "ProposalDisApproved",
      "type": "event"
    },
    {
      "anonymous": false,
      "inputs": [
        {
          "indexed": false,
          "internalType": "uint256",
          "name": "adId",
          "type": "uint256"
        },
        {
          "indexed": false,
          "internalType": "bool",
          "name": "newState",
          "type": "bool"
        }
      ],
      "name": "ProposalStatus",
      "type": "event"
    },
    {
      "inputs": [
        {
          "internalType": "uint256",
          "name": "",
          "type": "uint256"
        }
      ],
      "name": "_ads",
      "outputs": [
        {
          "internalType": "uint256",
          "name": "adId",
          "type": "uint256"
        },
        {
          "internalType": "uint16",
          "name": "format",
          "type": "uint16"
        },
        {
          "internalType": "uint16",
          "name": "category",
          "type": "uint16"
        },
        {
          "internalType": "uint256",
          "name": "balance",
          "type": "uint256"
        },
        {
          "internalType": "enum AdvertiserNode.AdState",
          "name": "state",
          "type": "uint8"
        },
        {
          "internalType": "string",
          "name": "metadata",
          "type": "string"
        },
        {
          "internalType": "address",
          "name": "advertiser",
          "type": "address"
        },
        {
          "internalType": "uint256",
          "name": "createdOn",
          "type": "uint256"
        }
      ],
      "stateMutability": "view",
      "type": "function",
      "constant": true
    },
    {
      "inputs": [
        {
          "internalType": "uint256",
          "name": "",
          "type": "uint256"
        }
      ],
      "name": "_apps",
      "outputs": [
        {
          "internalType": "uint256",
          "name": "appId",
          "type": "uint256"
        },
        {
          "internalType": "uint16",
          "name": "format",
          "type": "uint16"
        },
        {
          "internalType": "uint16",
          "name": "category",
          "type": "uint16"
        },
        {
          "internalType": "uint256",
          "name": "claimedReward",
          "type": "uint256"
        },
        {
          "internalType": "string",
          "name": "metadata",
          "type": "string"
        },
        {
          "internalType": "uint256",
          "name": "createdOn",
          "type": "uint256"
        },
        {
          "internalType": "address",
          "name": "publisher",
          "type": "address"
        }
      ],
      "stateMutability": "view",
      "type": "function",
      "constant": true
    },
    {
      "inputs": [],
      "name": "_claimValidatorReward",
      "outputs": [
        {
          "internalType": "uint256",
          "name": "",
          "type": "uint256"
        }
      ],
      "stateMutability": "nonpayable",
      "type": "function"
    },
    {
      "inputs": [],
      "name": "_exitValidatorNode",
      "outputs": [
        {
          "internalType": "uint256",
          "name": "",
          "type": "uint256"
        },
        {
          "internalType": "uint256",
          "name": "",
          "type": "uint256"
        }
      ],
      "stateMutability": "nonpayable",
      "type": "function"
    },
    {
      "inputs": [],
      "name": "_joinValidatorNode",
      "outputs": [
        {
          "internalType": "uint256",
          "name": "",
          "type": "uint256"
        }
      ],
      "stateMutability": "nonpayable",
      "type": "function"
    },
    {
      "inputs": [
        {
          "internalType": "uint256",
          "name": "",
          "type": "uint256"
        }
      ],
      "name": "_proposals",
      "outputs": [
        {
          "internalType": "bool",
          "name": "status",
          "type": "bool"
        }
      ],
      "stateMutability": "view",
      "type": "function",
      "constant": true
    },
    {
      "inputs": [
        {
          "internalType": "uint256",
          "name": "adId",
          "type": "uint256"
        }
      ],
      "name": "_proposeAd",
      "outputs": [],
      "stateMutability": "nonpayable",
      "type": "function"
    },
    {
      "inputs": [
        {
          "internalType": "address",
          "name": "",
          "type": "address"
        }
      ],
      "name": "_validators",
      "outputs": [
        {
          "internalType": "uint256",
          "name": "createdOn",
          "type": "uint256"
        },
        {
          "internalType": "uint256",
          "name": "turpleStaked",
          "type": "uint256"
        },
        {
          "internalType": "uint256",
          "name": "unClaimedReward",
          "type": "uint256"
        },
        {
          "internalType": "uint256",
          "name": "claimedReward",
          "type": "uint256"
        }
      ],
      "stateMutability": "view",
      "type": "function",
      "constant": true
    },
    {
      "inputs": [
        {
          "internalType": "uint256",
          "name": "adId",
          "type": "uint256"
        }
      ],
      "name": "_voteDown",
      "outputs": [],
      "stateMutability": "nonpayable",
      "type": "function"
    },
    {
      "inputs": [
        {
          "internalType": "uint256",
          "name": "adId",
          "type": "uint256"
        }
      ],
      "name": "_voteUp",
      "outputs": [],
      "stateMutability": "nonpayable",
      "type": "function"
    },
    {
      "inputs": [],
      "name": "acceptOwnership",
      "outputs": [],
      "stateMutability": "nonpayable",
      "type": "function"
    },
    {
      "inputs": [
        {
          "internalType": "uint256",
          "name": "adId",
          "type": "uint256"
        }
      ],
      "name": "approve",
      "outputs": [],
      "stateMutability": "nonpayable",
      "type": "function"
    },
    {
      "inputs": [
        {
          "internalType": "uint16",
          "name": "category",
          "type": "uint16"
        },
        {
          "internalType": "uint16",
          "name": "format",
          "type": "uint16"
        },
        {
          "internalType": "string",
          "name": "metadata",
          "type": "string"
        }
      ],
      "name": "createAd",
      "outputs": [],
      "stateMutability": "nonpayable",
      "type": "function"
    },
    {
      "inputs": [
        {
          "internalType": "uint16",
          "name": "category",
          "type": "uint16"
        },
        {
          "internalType": "uint16",
          "name": "format",
          "type": "uint16"
        },
        {
          "internalType": "string",
          "name": "metadata",
          "type": "string"
        }
      ],
      "name": "createApp",
      "outputs": [],
      "stateMutability": "nonpayable",
      "type": "function"
    },
    {
      "inputs": [
        {
          "internalType": "uint256",
          "name": "adId",
          "type": "uint256"
        }
      ],
      "name": "disapprove",
      "outputs": [],
      "stateMutability": "nonpayable",
      "type": "function"
    },
    {
      "inputs": [],
      "name": "owner",
      "outputs": [
        {
          "internalType": "address",
          "name": "",
          "type": "address"
        }
      ],
      "stateMutability": "view",
      "type": "function",
      "constant": true
    },
    {
      "inputs": [
        {
          "internalType": "uint256",
          "name": "adId",
          "type": "uint256"
        }
      ],
      "name": "pauseAd",
      "outputs": [],
      "stateMutability": "nonpayable",
      "type": "function"
    },
    {
      "inputs": [],
      "name": "pendingOwner",
      "outputs": [
        {
          "internalType": "address",
          "name": "",
          "type": "address"
        }
      ],
      "stateMutability": "view",
      "type": "function",
      "constant": true
    },
    {
      "inputs": [],
      "name": "renounceOwnership",
      "outputs": [],
      "stateMutability": "nonpayable",
      "type": "function"
    },
    {
      "inputs": [
        {
          "internalType": "uint256",
          "name": "adId",
          "type": "uint256"
        }
      ],
      "name": "state",
      "outputs": [
        {
          "internalType": "enum Proposals.ProposalState",
          "name": "",
          "type": "uint8"
        }
      ],
      "stateMutability": "view",
      "type": "function",
      "constant": true
    },
    {
      "inputs": [
        {
          "internalType": "address",
          "name": "newOwner",
          "type": "address"
        }
      ],
      "name": "transferOwnership",
      "outputs": [],
      "stateMutability": "nonpayable",
      "type": "function"
    },
    {
      "inputs": [
        {
          "internalType": "uint256",
          "name": "adId",
          "type": "uint256"
        },
        {
          "internalType": "uint256",
          "name": "amount",
          "type": "uint256"
        }
      ],
      "name": "fundAd",
      "outputs": [],
      "stateMutability": "nonpayable",
      "type": "function"
    },
    {
      "inputs": [
        {
          "internalType": "uint256",
          "name": "adId",
          "type": "uint256"
        }
      ],
      "name": "proposeAd",
      "outputs": [],
      "stateMutability": "nonpayable",
      "type": "function"
    },
    {
      "inputs": [
        {
          "internalType": "uint256",
          "name": "adId",
          "type": "uint256"
        }
      ],
      "name": "publishAd",
      "outputs": [],
      "stateMutability": "nonpayable",
      "type": "function"
    },
    {
      "inputs": [
        {
          "internalType": "uint256",
          "name": "appId",
          "type": "uint256"
        },
        {
          "internalType": "uint256",
          "name": "amount",
          "type": "uint256"
        }
      ],
      "name": "claimAppReward",
      "outputs": [],
      "stateMutability": "nonpayable",
      "type": "function"
    },
    {
      "inputs": [
        {
          "internalType": "uint256",
          "name": "adId",
          "type": "uint256"
        }
      ],
      "name": "voteAdUp",
      "outputs": [],
      "stateMutability": "nonpayable",
      "type": "function"
    },
    {
      "inputs": [
        {
          "internalType": "uint256",
          "name": "adId",
          "type": "uint256"
        }
      ],
      "name": "voteAdDown",
      "outputs": [],
      "stateMutability": "nonpayable",
      "type": "function"
    },
    {
      "inputs": [],
      "name": "joinValidator",
      "outputs": [],
      "stateMutability": "nonpayable",
      "type": "function"
    },
    {
      "inputs": [],
      "name": "claimValidatorReward",
      "outputs": [],
      "stateMutability": "nonpayable",
      "type": "function"
    },
    {
      "inputs": [],
      "name": "exitValidator",
      "outputs": [],
      "stateMutability": "nonpayable",
      "type": "function"
    }
  ],
  "bytecode": "0x608060405260466000806101000a81548166ffffffffffffff021916908366ffffffffffffff1602179055506002600060076101000a81548166ffffffffffffff021916908366ffffffffffffff1602179055506702c68af0bb14000060025569023934c5a09da19000006003553480156200007a57600080fd5b5060405162003b0438038062003b048339818101604052810190620000a091906200027e565b620000c0620000b46200010860201b60201c565b6200011060201b60201c565b80600b60006101000a81548173ffffffffffffffffffffffffffffffffffffffff021916908373ffffffffffffffffffffffffffffffffffffffff16021790555050620002b0565b600033905090565b600a60006101000a81549073ffffffffffffffffffffffffffffffffffffffff02191690556200014b816200014e60201b620020631760201c565b50565b6000600960009054906101000a900473ffffffffffffffffffffffffffffffffffffffff16905081600960006101000a81548173ffffffffffffffffffffffffffffffffffffffff021916908373ffffffffffffffffffffffffffffffffffffffff1602179055508173ffffffffffffffffffffffffffffffffffffffff168173ffffffffffffffffffffffffffffffffffffffff167f8be0079c531659141344cd1fd0a4f28419497f9722a3daafe3b4186f6b6457e060405160405180910390a35050565b600080fd5b600073ffffffffffffffffffffffffffffffffffffffff82169050919050565b6000620002468262000219565b9050919050565b620002588162000239565b81146200026457600080fd5b50565b60008151905062000278816200024d565b92915050565b60006020828403121562000297576200029662000214565b5b6000620002a78482850162000267565b91505092915050565b61384480620002c06000396000f3fe608060405234801561001057600080fd5b50600436106101da5760003560e01c80637ccb6ead11610104578063bdbd1b80116100a2578063de57987211610071578063de579872146104da578063e30c3978146104f6578063f2fde38b14610514578063f9e5e07314610530576101da565b8063bdbd1b8014610465578063cdf5cfc414610481578063d756cf7f1461048b578063d7cb54a2146104a7576101da565b80638da5cb5b116100de5780638da5cb5b146104175780639a91e6d714610435578063b46692171461043f578063b759f95414610449576101da565b80637ccb6ead146103be5780638008df4f146103dd5780638c833df3146103f9576101da565b80633e4f49e61161017c57806366dd7ccb1161014b57806366dd7ccb14610370578063715018a61461038c578063758c2a491461039657806379ba5097146103b4576101da565b80633e4f49e6146102ec5780634bb9831a1461031c578063579a49b71461033857806360269b9814610354576101da565b806319294bbe116101b857806319294bbe1461026257806324c680f71461027e5780632988fa711461029a5780632a996c41146102b6576101da565b806309913a98146101df5780630a494840146101fb5780630e82b1f01461022b575b600080fd5b6101f960048036038101906101f49190612ae4565b61054c565b005b61021560048036038101906102109190612b24565b61060a565b6040516102229190612b6c565b60405180910390f35b61024560048036038101906102409190612b24565b610635565b604051610259989796959493929190612cfb565b60405180910390f35b61027c60048036038101906102779190612b24565b61074e565b005b61029860048036038101906102939190612b24565b6107ae565b005b6102b460048036038101906102af9190612b24565b61080e565b005b6102d060048036038101906102cb9190612b24565b610882565b6040516102e39796959493929190612d80565b60405180910390f35b61030660048036038101906103019190612b24565b610988565b6040516103139190612e3e565b60405180910390f35b61033660048036038101906103319190612b24565b610a64565b005b610352600480360381019061034d9190612b24565b610ab4565b005b61036e60048036038101906103699190612fba565b610cf2565b005b61038a60048036038101906103859190612b24565b610f34565b005b610394611199565b005b61039e6111ad565b6040516103ab9190613029565b60405180910390f35b6103bc6111bc565b005b6103c6611249565b6040516103d4929190613044565b60405180910390f35b6103f760048036038101906103f29190612b24565b6113ad565b005b61040161162f565b60405161040e9190613029565b60405180910390f35b61041f611730565b60405161042c919061306d565b60405180910390f35b61043d61175a565b005b610447611765565b005b610463600480360381019061045e9190612b24565b611831565b005b61047f600480360381019061047a9190612fba565b611ab3565b005b610489611d5e565b005b6104a560048036038101906104a09190612ae4565b611e1d565b005b6104c160048036038101906104bc91906130b4565b611ed1565b6040516104d194939291906130e1565b60405180910390f35b6104f460048036038101906104ef9190612b24565b611f01565b005b6104fe611f18565b60405161050b919061306d565b60405180910390f35b61052e600480360381019061052991906130b4565b611f42565b005b61054a60048036038101906105459190612b24565b611fef565b005b6105568282612129565b600061056061237d565b9050600b60009054906101000a900473ffffffffffffffffffffffffffffffffffffffff1673ffffffffffffffffffffffffffffffffffffffff166323b872dd8230856040518463ffffffff1660e01b81526004016105c193929190613126565b6020604051808303816000875af11580156105e0573d6000803e3d6000fd5b505050506040513d601f19601f820116820180604052508101906106049190613189565b50505050565b60016020528060005260406000206000915090508060000160009054906101000a900460ff16905081565b60086020528060005260406000206000915090508060000154908060010160009054906101000a900461ffff16908060010160029054906101000a900461ffff16908060020154908060030160009054906101000a900460ff169080600401805461069f906131e5565b80601f01602080910402602001604051908101604052809291908181526020018280546106cb906131e5565b80156107185780601f106106ed57610100808354040283529160200191610718565b820191906000526020600020905b8154815290600101906020018083116106fb57829003601f168201915b5050505050908060050160009054906101000a900473ffffffffffffffffffffffffffffffffffffffff16908060060154905088565b6001600481111561076257610761612bb3565b5b6008600083815260200190815260200160002060030160009054906101000a900460ff16600481111561079857610797612bb3565b5b146107a257600080fd5b6107ab8161080e565b50565b600160048111156107c2576107c1612bb3565b5b6008600083815260200190815260200160002060030160009054906101000a900460ff1660048111156107f8576107f7612bb3565b5b1461080257600080fd5b61080b81611fef565b50565b61081781611831565b600061082161237d565b9050600254600460008373ffffffffffffffffffffffffffffffffffffffff1673ffffffffffffffffffffffffffffffffffffffff16815260200190815260200160002060020160008282546108779190613245565b925050819055505050565b60066020528060005260406000206000915090508060000154908060010160009054906101000a900461ffff16908060010160029054906101000a900461ffff16908060020154908060030180546108d9906131e5565b80601f0160208091040260200160405190810160405280929190818152602001828054610905906131e5565b80156109525780601f1061092757610100808354040283529160200191610952565b820191906000526020600020905b81548152906001019060200180831161093557829003601f168201915b5050505050908060040154908060050160009054906101000a900473ffffffffffffffffffffffffffffffffffffffff16905087565b60008060016000848152602001908152602001600020600101805490509050600060016000858152602001908152602001600020600201805490509050600060079054906101000a900466ffffffffffffff1666ffffffffffffff1681836109f09190613245565b1015610a0157600092505050610a5f565b60008183610a0f9190613245565b606484610a1c9190613279565b610a2691906132ea565b905060008054906101000a900466ffffffffffffff1666ffffffffffffff168110610a575760019350505050610a5f565b600293505050505b919050565b60016002811115610a7857610a77612bb3565b5b610a8182610988565b6002811115610a9357610a92612bb3565b5b14610a9d57600080fd5b610aa8816000612385565b610ab1816123f0565b50565b6008600082815260200190815260200160002060030160009054906101000a900460ff166004811115610aea57610ae9612bb3565b5b60006004811115610afe57610afd612bb3565b5b14610b0857600080fd5b60016008600083815260200190815260200160002060030160006101000a81548160ff02191690836004811115610b4257610b41612bb3565b5b0217905550610cef6008600083815260200190815260200160002060405180610100016040529081600082015481526020016001820160009054906101000a900461ffff1661ffff1661ffff1681526020016001820160029054906101000a900461ffff1661ffff1661ffff168152602001600282015481526020016003820160009054906101000a900460ff166004811115610be257610be1612bb3565b5b6004811115610bf457610bf3612bb3565b5b8152602001600482018054610c08906131e5565b80601f0160208091040260200160405190810160405280929190818152602001828054610c34906131e5565b8015610c815780601f10610c5657610100808354040283529160200191610c81565b820191906000526020600020905b815481529060010190602001808311610c6457829003601f168201915b505050505081526020016005820160009054906101000a900473ffffffffffffffffffffffffffffffffffffffff1673ffffffffffffffffffffffffffffffffffffffff1673ffffffffffffffffffffffffffffffffffffffff16815260200160068201548152505061262e565b50565b6000610cfc61237d565b9050610d086005612696565b6000610d1460056126ac565b90506000600660008381526020019081526020016000209050818160000181905550428160040181905550858160010160026101000a81548161ffff021916908361ffff160217905550848160010160006101000a81548161ffff021916908361ffff160217905550828160050160006101000a81548173ffffffffffffffffffffffffffffffffffffffff021916908373ffffffffffffffffffffffffffffffffffffffff16021790555083816003019081610dd191906134c7565b50610f2c816040518060e0016040529081600082015481526020016001820160009054906101000a900461ffff1661ffff1661ffff1681526020016001820160029054906101000a900461ffff1661ffff1661ffff16815260200160028201548152602001600382018054610e45906131e5565b80601f0160208091040260200160405190810160405280929190818152602001828054610e71906131e5565b8015610ebe5780601f10610e9357610100808354040283529160200191610ebe565b820191906000526020600020905b815481529060010190602001808311610ea157829003601f168201915b50505050508152602001600482015481526020016005820160009054906101000a900473ffffffffffffffffffffffffffffffffffffffff1673ffffffffffffffffffffffffffffffffffffffff1673ffffffffffffffffffffffffffffffffffffffff16815250506126ba565b505050505050565b6000610f3e61237d565b90506008600083815260200190815260200160002060050160009054906101000a900473ffffffffffffffffffffffffffffffffffffffff1673ffffffffffffffffffffffffffffffffffffffff168173ffffffffffffffffffffffffffffffffffffffff1614610fae57600080fd5b60036008600084815260200190815260200160002060030160006101000a81548160ff02191690836004811115610fe857610fe7612bb3565b5b02179055506111956008600084815260200190815260200160002060405180610100016040529081600082015481526020016001820160009054906101000a900461ffff1661ffff1661ffff1681526020016001820160029054906101000a900461ffff1661ffff1661ffff168152602001600282015481526020016003820160009054906101000a900460ff16600481111561108857611087612bb3565b5b600481111561109a57611099612bb3565b5b81526020016004820180546110ae906131e5565b80601f01602080910402602001604051908101604052809291908181526020018280546110da906131e5565b80156111275780601f106110fc57610100808354040283529160200191611127565b820191906000526020600020905b81548152906001019060200180831161110a57829003601f168201915b505050505081526020016005820160009054906101000a900473ffffffffffffffffffffffffffffffffffffffff1673ffffffffffffffffffffffffffffffffffffffff1673ffffffffffffffffffffffffffffffffffffffff16815260200160068201548152505061262e565b5050565b6111a161271c565b6111ab600061279a565b565b60006111b76127cb565b905090565b60006111c661237d565b90508073ffffffffffffffffffffffffffffffffffffffff166111e7611f18565b73ffffffffffffffffffffffffffffffffffffffff161461123d576040517f08c379a00000000000000000000000000000000000000000000000000000000081526004016112349061360b565b60405180910390fd5b6112468161279a565b50565b600080600061125661237d565b90506000600460008373ffffffffffffffffffffffffffffffffffffffff1673ffffffffffffffffffffffffffffffffffffffff16815260200190815260200160002060000154036112a757600080fd5b60006112b161237d565b905060006112bd6127cb565b90506000600460008473ffffffffffffffffffffffffffffffffffffffff1673ffffffffffffffffffffffffffffffffffffffff168152602001908152602001600020600101549050600460008473ffffffffffffffffffffffffffffffffffffffff1673ffffffffffffffffffffffffffffffffffffffff16815260200190815260200160002060008082016000905560018201600090556002820160009055600382016000905550507fba32ea11ceab16eb102fae4241cc89efb73850506d3d6b798124529f7b1cb50f83604051611397919061306d565b60405180910390a1808295509550505050509091565b8060006113b861237d565b905060005b600160008481526020019081526020016000206001018054905081101561147b578173ffffffffffffffffffffffffffffffffffffffff1660016000858152602001908152602001600020600101828154811061141d5761141c61362b565b5b9060005260206000200160009054906101000a900473ffffffffffffffffffffffffffffffffffffffff1673ffffffffffffffffffffffffffffffffffffffff160361146857600080fd5b80806114739061365a565b9150506113bd565b5060005b600160008481526020019081526020016000206002018054905081101561153d578173ffffffffffffffffffffffffffffffffffffffff166001600085815260200190815260200160002060020182815481106114df576114de61362b565b5b9060005260206000200160009054906101000a900473ffffffffffffffffffffffffffffffffffffffff1673ffffffffffffffffffffffffffffffffffffffff160361152a57600080fd5b80806115359061365a565b91505061147f565b50826001600082815260200190815260200160002060000160009054906101000a900460ff1661156c57600080fd5b600061157661237d565b905060016000868152602001908152602001600020600201819080600181540180825580915050600190039060005260206000200160009091909190916101000a81548173ffffffffffffffffffffffffffffffffffffffff021916908373ffffffffffffffffffffffffffffffffffffffff1602179055507f55b15531415e59c16fa809cec8a83272bf263fac9b896b20eefe992f361458dd85826040516116209291906136a2565b60405180910390a15050505050565b60008061163a61237d565b90506000600460008373ffffffffffffffffffffffffffffffffffffffff1673ffffffffffffffffffffffffffffffffffffffff168152602001908152602001600020600001541461168b57600080fd5b600061169561237d565b90506000600460008373ffffffffffffffffffffffffffffffffffffffff1673ffffffffffffffffffffffffffffffffffffffff168152602001908152602001600020905042816000018190555060035481600101819055507f023abed0e6110d2dc6fa6e39eb373e7186c84411a7ef1cb48ff10a293addcbc08260405161171d919061306d565b60405180910390a1600354935050505090565b6000600960009054906101000a900473ffffffffffffffffffffffffffffffffffffffff16905090565b6117626111ad565b50565b600080611770611249565b91509150600061177e61237d565b9050600b60009054906101000a900473ffffffffffffffffffffffffffffffffffffffff1673ffffffffffffffffffffffffffffffffffffffff1663a9059cbb8284866117cb9190613245565b6040518363ffffffff1660e01b81526004016117e89291906136cb565b6020604051808303816000875af1158015611807573d6000803e3d6000fd5b505050506040513d601f19601f8201168201806040525081019061182b9190613189565b50505050565b80600061183c61237d565b905060005b60016000848152602001908152602001600020600101805490508110156118ff578173ffffffffffffffffffffffffffffffffffffffff166001600085815260200190815260200160002060010182815481106118a1576118a061362b565b5b9060005260206000200160009054906101000a900473ffffffffffffffffffffffffffffffffffffffff1673ffffffffffffffffffffffffffffffffffffffff16036118ec57600080fd5b80806118f79061365a565b915050611841565b5060005b60016000848152602001908152602001600020600201805490508110156119c1578173ffffffffffffffffffffffffffffffffffffffff166001600085815260200190815260200160002060020182815481106119635761196261362b565b5b9060005260206000200160009054906101000a900473ffffffffffffffffffffffffffffffffffffffff1673ffffffffffffffffffffffffffffffffffffffff16036119ae57600080fd5b80806119b99061365a565b915050611903565b50826001600082815260200190815260200160002060000160009054906101000a900460ff166119f057600080fd5b60006119fa61237d565b905060016000868152602001908152602001600020600101819080600181540180825580915050600190039060005260206000200160009091909190916101000a81548173ffffffffffffffffffffffffffffffffffffffff021916908373ffffffffffffffffffffffffffffffffffffffff1602179055507f049c28adfe50bcf1b76fd95273b6a24566b9f377e52fddc653c3355248dad07a8582604051611aa49291906136a2565b60405180910390a15050505050565b6000611abd61237d565b9050611ac96007612696565b6000611ad560076126ac565b9050600060086000838152602001908152602001600020905081816000018190555060008160030160006101000a81548160ff02191690836004811115611b1f57611b1e612bb3565b5b0217905550828160050160006101000a81548173ffffffffffffffffffffffffffffffffffffffff021916908373ffffffffffffffffffffffffffffffffffffffff160217905550428160060181905550858160010160026101000a81548161ffff021916908361ffff160217905550848160010160006101000a81548161ffff021916908361ffff16021790555083816004019081611bbf91906134c7565b50611d568160405180610100016040529081600082015481526020016001820160009054906101000a900461ffff1661ffff1661ffff1681526020016001820160029054906101000a900461ffff1661ffff1661ffff168152602001600282015481526020016003820160009054906101000a900460ff166004811115611c4957611c48612bb3565b5b6004811115611c5b57611c5a612bb3565b5b8152602001600482018054611c6f906131e5565b80601f0160208091040260200160405190810160405280929190818152602001828054611c9b906131e5565b8015611ce85780601f10611cbd57610100808354040283529160200191611ce8565b820191906000526020600020905b815481529060010190602001808311611ccb57829003601f168201915b505050505081526020016005820160009054906101000a900473ffffffffffffffffffffffffffffffffffffffff1673ffffffffffffffffffffffffffffffffffffffff1673ffffffffffffffffffffffffffffffffffffffff16815260200160068201548152505061262e565b505050505050565b6000611d6861162f565b90506000611d7461237d565b9050600b60009054906101000a900473ffffffffffffffffffffffffffffffffffffffff1673ffffffffffffffffffffffffffffffffffffffff166323b872dd8230856040518463ffffffff1660e01b8152600401611dd593929190613126565b6020604051808303816000875af1158015611df4573d6000803e3d6000fd5b505050506040513d601f19601f82011682018060405250810190611e189190613189565b505050565b6000611e298383612901565b9050600b60009054906101000a900473ffffffffffffffffffffffffffffffffffffffff1673ffffffffffffffffffffffffffffffffffffffff1663a9059cbb82846040518363ffffffff1660e01b8152600401611e889291906136cb565b6020604051808303816000875af1158015611ea7573d6000803e3d6000fd5b505050506040513d601f19601f82011682018060405250810190611ecb9190613189565b50505050565b60046020528060005260406000206000915090508060000154908060010154908060020154908060030154905084565b611f0a81610ab4565b611f15816001612385565b50565b6000600a60009054906101000a900473ffffffffffffffffffffffffffffffffffffffff16905090565b611f4a61271c565b80600a60006101000a81548173ffffffffffffffffffffffffffffffffffffffff021916908373ffffffffffffffffffffffffffffffffffffffff1602179055508073ffffffffffffffffffffffffffffffffffffffff16611faa611730565b73ffffffffffffffffffffffffffffffffffffffff167f38d16b8cac22d99fc7c124b9cd0de2d3fa1faef420bfe791d8c362d765e2270060405160405180910390a350565b611ff8816113ad565b600061200261237d565b9050600254600460008373ffffffffffffffffffffffffffffffffffffffff1673ffffffffffffffffffffffffffffffffffffffff16815260200190815260200160002060020160008282546120589190613245565b925050819055505050565b6000600960009054906101000a900473ffffffffffffffffffffffffffffffffffffffff16905081600960006101000a81548173ffffffffffffffffffffffffffffffffffffffff021916908373ffffffffffffffffffffffffffffffffffffffff1602179055508173ffffffffffffffffffffffffffffffffffffffff168173ffffffffffffffffffffffffffffffffffffffff167f8be0079c531659141344cd1fd0a4f28419497f9722a3daafe3b4186f6b6457e060405160405180910390a35050565b600061213361237d565b90506008600084815260200190815260200160002060050160009054906101000a900473ffffffffffffffffffffffffffffffffffffffff1673ffffffffffffffffffffffffffffffffffffffff168173ffffffffffffffffffffffffffffffffffffffff16146121a357600080fd5b816008600085815260200190815260200160002060020160008282546121c99190613245565b925050819055506123786008600085815260200190815260200160002060405180610100016040529081600082015481526020016001820160009054906101000a900461ffff1661ffff1661ffff1681526020016001820160029054906101000a900461ffff1661ffff1661ffff168152602001600282015481526020016003820160009054906101000a900460ff16600481111561226b5761226a612bb3565b5b600481111561227d5761227c612bb3565b5b8152602001600482018054612291906131e5565b80601f01602080910402602001604051908101604052809291908181526020018280546122bd906131e5565b801561230a5780601f106122df5761010080835404028352916020019161230a565b820191906000526020600020905b8154815290600101906020018083116122ed57829003601f168201915b505050505081526020016005820160009054906101000a900473ffffffffffffffffffffffffffffffffffffffff1673ffffffffffffffffffffffffffffffffffffffff1673ffffffffffffffffffffffffffffffffffffffff16815260200160068201548152505061262e565b505050565b600033905090565b806001600084815260200190815260200160002060000160006101000a81548160ff0219169083151502179055507f605597a24eb4b1f5771cf82210c1f2188ec96261760fb1c616250a154ac06d9882826040516123e49291906136f4565b60405180910390a15050565b6008600082815260200190815260200160002060030160009054906101000a900460ff16600481111561242657612425612bb3565b5b6001600481111561243a57612439612bb3565b5b1461244457600080fd5b60026008600083815260200190815260200160002060030160006101000a81548160ff0219169083600481111561247e5761247d612bb3565b5b021790555061262b6008600083815260200190815260200160002060405180610100016040529081600082015481526020016001820160009054906101000a900461ffff1661ffff1661ffff1681526020016001820160029054906101000a900461ffff1661ffff1661ffff168152602001600282015481526020016003820160009054906101000a900460ff16600481111561251e5761251d612bb3565b5b60048111156125305761252f612bb3565b5b8152602001600482018054612544906131e5565b80601f0160208091040260200160405190810160405280929190818152602001828054612570906131e5565b80156125bd5780601f10612592576101008083540402835291602001916125bd565b820191906000526020600020905b8154815290600101906020018083116125a057829003601f168201915b505050505081526020016005820160009054906101000a900473ffffffffffffffffffffffffffffffffffffffff1673ffffffffffffffffffffffffffffffffffffffff1673ffffffffffffffffffffffffffffffffffffffff16815260200160068201548152505061262e565b50565b7fa042410af27b7ab5a12f9a2b3a6853a133afd017f5c5eb6db743f2eb93b885b7816020015182604001518360000151846060015185608001518660a001518760e001518860c0015160405161268b98979695949392919061371d565b60405180910390a150565b6001816000016000828254019250508190555050565b600081600001549050919050565b7f3a98a86bf3b3550237ca3ddf26b5c481f2260c8a0484b943d2788b60679d94a4816000015182602001518360400151846060015185608001518660a001518760c001516040516127119796959493929190612d80565b60405180910390a150565b61272461237d565b73ffffffffffffffffffffffffffffffffffffffff16612742611730565b73ffffffffffffffffffffffffffffffffffffffff1614612798576040517f08c379a000000000000000000000000000000000000000000000000000000000815260040161278f906137ee565b60405180910390fd5b565b600a60006101000a81549073ffffffffffffffffffffffffffffffffffffffff02191690556127c881612063565b50565b6000806127d661237d565b90506000600460008373ffffffffffffffffffffffffffffffffffffffff1673ffffffffffffffffffffffffffffffffffffffff16815260200190815260200160002060020154905080600460008473ffffffffffffffffffffffffffffffffffffffff1673ffffffffffffffffffffffffffffffffffffffff16815260200190815260200160002060030160008282546128719190613245565b925050819055506000600460008473ffffffffffffffffffffffffffffffffffffffff1673ffffffffffffffffffffffffffffffffffffffff168152602001908152602001600020600201819055507f8a99b5a26bd4fcdeaf05da48b68ad75773207399069b575f23eddcc9b02aa97982826040516128f19291906136cb565b60405180910390a1809250505090565b600080600660008581526020019081526020016000206040518060e0016040529081600082015481526020016001820160009054906101000a900461ffff1661ffff1661ffff1681526020016001820160029054906101000a900461ffff1661ffff1661ffff16815260200160028201548152602001600382018054612986906131e5565b80601f01602080910402602001604051908101604052809291908181526020018280546129b2906131e5565b80156129ff5780601f106129d4576101008083540402835291602001916129ff565b820191906000526020600020905b8154815290600101906020018083116129e257829003601f168201915b50505050508152602001600482015481526020016005820160009054906101000a900473ffffffffffffffffffffffffffffffffffffffff1673ffffffffffffffffffffffffffffffffffffffff1673ffffffffffffffffffffffffffffffffffffffff168152505090508281606001818151612a7c9190613245565b91508181525050612a8c816126ba565b8060c0015191505092915050565b6000604051905090565b600080fd5b600080fd5b6000819050919050565b612ac181612aae565b8114612acc57600080fd5b50565b600081359050612ade81612ab8565b92915050565b60008060408385031215612afb57612afa612aa4565b5b6000612b0985828601612acf565b9250506020612b1a85828601612acf565b9150509250929050565b600060208284031215612b3a57612b39612aa4565b5b6000612b4884828501612acf565b91505092915050565b60008115159050919050565b612b6681612b51565b82525050565b6000602082019050612b816000830184612b5d565b92915050565b612b9081612aae565b82525050565b600061ffff82169050919050565b612bad81612b96565b82525050565b7f4e487b7100000000000000000000000000000000000000000000000000000000600052602160045260246000fd5b60058110612bf357612bf2612bb3565b5b50565b6000819050612c0482612be2565b919050565b6000612c1482612bf6565b9050919050565b612c2481612c09565b82525050565b600081519050919050565b600082825260208201905092915050565b60005b83811015612c64578082015181840152602081019050612c49565b60008484015250505050565b6000601f19601f8301169050919050565b6000612c8c82612c2a565b612c968185612c35565b9350612ca6818560208601612c46565b612caf81612c70565b840191505092915050565b600073ffffffffffffffffffffffffffffffffffffffff82169050919050565b6000612ce582612cba565b9050919050565b612cf581612cda565b82525050565b600061010082019050612d11600083018b612b87565b612d1e602083018a612ba4565b612d2b6040830189612ba4565b612d386060830188612b87565b612d456080830187612c1b565b81810360a0830152612d578186612c81565b9050612d6660c0830185612cec565b612d7360e0830184612b87565b9998505050505050505050565b600060e082019050612d95600083018a612b87565b612da26020830189612ba4565b612daf6040830188612ba4565b612dbc6060830187612b87565b8181036080830152612dce8186612c81565b9050612ddd60a0830185612b87565b612dea60c0830184612cec565b98975050505050505050565b60038110612e0757612e06612bb3565b5b50565b6000819050612e1882612df6565b919050565b6000612e2882612e0a565b9050919050565b612e3881612e1d565b82525050565b6000602082019050612e536000830184612e2f565b92915050565b612e6281612b96565b8114612e6d57600080fd5b50565b600081359050612e7f81612e59565b92915050565b600080fd5b600080fd5b7f4e487b7100000000000000000000000000000000000000000000000000000000600052604160045260246000fd5b612ec782612c70565b810181811067ffffffffffffffff82111715612ee657612ee5612e8f565b5b80604052505050565b6000612ef9612a9a565b9050612f058282612ebe565b919050565b600067ffffffffffffffff821115612f2557612f24612e8f565b5b612f2e82612c70565b9050602081019050919050565b82818337600083830152505050565b6000612f5d612f5884612f0a565b612eef565b905082815260208101848484011115612f7957612f78612e8a565b5b612f84848285612f3b565b509392505050565b600082601f830112612fa157612fa0612e85565b5b8135612fb1848260208601612f4a565b91505092915050565b600080600060608486031215612fd357612fd2612aa4565b5b6000612fe186828701612e70565b9350506020612ff286828701612e70565b925050604084013567ffffffffffffffff81111561301357613012612aa9565b5b61301f86828701612f8c565b9150509250925092565b600060208201905061303e6000830184612b87565b92915050565b60006040820190506130596000830185612b87565b6130666020830184612b87565b9392505050565b60006020820190506130826000830184612cec565b92915050565b61309181612cda565b811461309c57600080fd5b50565b6000813590506130ae81613088565b92915050565b6000602082840312156130ca576130c9612aa4565b5b60006130d88482850161309f565b91505092915050565b60006080820190506130f66000830187612b87565b6131036020830186612b87565b6131106040830185612b87565b61311d6060830184612b87565b95945050505050565b600060608201905061313b6000830186612cec565b6131486020830185612cec565b6131556040830184612b87565b949350505050565b61316681612b51565b811461317157600080fd5b50565b6000815190506131838161315d565b92915050565b60006020828403121561319f5761319e612aa4565b5b60006131ad84828501613174565b91505092915050565b7f4e487b7100000000000000000000000000000000000000000000000000000000600052602260045260246000fd5b600060028204905060018216806131fd57607f821691505b6020821081036132105761320f6131b6565b5b50919050565b7f4e487b7100000000000000000000000000000000000000000000000000000000600052601160045260246000fd5b600061325082612aae565b915061325b83612aae565b925082820190508082111561327357613272613216565b5b92915050565b600061328482612aae565b915061328f83612aae565b925082820261329d81612aae565b915082820484148315176132b4576132b3613216565b5b5092915050565b7f4e487b7100000000000000000000000000000000000000000000000000000000600052601260045260246000fd5b60006132f582612aae565b915061330083612aae565b9250826133105761330f6132bb565b5b828204905092915050565b60008190508160005260206000209050919050565b60006020601f8301049050919050565b600082821b905092915050565b60006008830261337d7fffffffffffffffffffffffffffffffffffffffffffffffffffffffffffffffff82613340565b6133878683613340565b95508019841693508086168417925050509392505050565b6000819050919050565b60006133c46133bf6133ba84612aae565b61339f565b612aae565b9050919050565b6000819050919050565b6133de836133a9565b6133f26133ea826133cb565b84845461334d565b825550505050565b600090565b6134076133fa565b6134128184846133d5565b505050565b5b818110156134365761342b6000826133ff565b600181019050613418565b5050565b601f82111561347b5761344c8161331b565b61345584613330565b81016020851015613464578190505b61347861347085613330565b830182613417565b50505b505050565b600082821c905092915050565b600061349e60001984600802613480565b1980831691505092915050565b60006134b7838361348d565b9150826002028217905092915050565b6134d082612c2a565b67ffffffffffffffff8111156134e9576134e8612e8f565b5b6134f382546131e5565b6134fe82828561343a565b600060209050601f831160018114613531576000841561351f578287015190505b61352985826134ab565b865550613591565b601f19841661353f8661331b565b60005b8281101561356757848901518255600182019150602085019450602081019050613542565b868310156135845784890151613580601f89168261348d565b8355505b6001600288020188555050505b505050505050565b7f4f776e61626c6532537465703a2063616c6c6572206973206e6f74207468652060008201527f6e6577206f776e65720000000000000000000000000000000000000000000000602082015250565b60006135f5602983612c35565b915061360082613599565b604082019050919050565b60006020820190508181036000830152613624816135e8565b9050919050565b7f4e487b7100000000000000000000000000000000000000000000000000000000600052603260045260246000fd5b600061366582612aae565b91507fffffffffffffffffffffffffffffffffffffffffffffffffffffffffffffffff820361369757613696613216565b5b600182019050919050565b60006040820190506136b76000830185612b87565b6136c46020830184612cec565b9392505050565b60006040820190506136e06000830185612cec565b6136ed6020830184612b87565b9392505050565b60006040820190506137096000830185612b87565b6137166020830184612b5d565b9392505050565b600061010082019050613733600083018b612ba4565b613740602083018a612ba4565b61374d6040830189612b87565b61375a6060830188612b87565b6137676080830187612c1b565b81810360a08301526137798186612c81565b905061378860c0830185612b87565b61379560e0830184612cec565b9998505050505050505050565b7f4f776e61626c653a2063616c6c6572206973206e6f7420746865206f776e6572600082015250565b60006137d8602083612c35565b91506137e3826137a2565b602082019050919050565b60006020820190508181036000830152613807816137cb565b905091905056fea264697066735822122017d900e45c617bf178ac64dbc1bdcf1e89cffdc7fa22df9ea493a5eed8c1b04c64736f6c63430008110033",
  "immutableReferences": {},
  "source": "// SPDX-License-Identifier: MIT\r\npragma solidity ^0.8.17;\r\n\r\nimport \"./TurpleToken.sol\";\r\n\r\nimport \"./nodes/ValidatorNode.sol\";\r\nimport \"./nodes/PublisherNode.sol\";\r\nimport \"./nodes/AdvertiserNode.sol\";\r\n\r\nimport \"@openzeppelin/contracts/access/Ownable2Step.sol\";\r\n\r\ncontract TurpleCore is\r\n    ValidatorNode,\r\n    PublisherNode,\r\n    AdvertiserNode,\r\n    Ownable2Step\r\n{\r\n    TurpleToken private _turpleTorken;\r\n\r\n    constructor(address turfleTorken) Ownable2Step() {\r\n        _turpleTorken = TurpleToken(turfleTorken);\r\n    }\r\n\r\n    // ========== Advertisers Functions =========== //\r\n\r\n    function fundAd(uint256 adId, uint256 amount) external {\r\n        _fundAd(adId, amount);\r\n\r\n        address account = _msgSender();\r\n        _turpleTorken.transferFrom(account, address(this), amount);\r\n    }\r\n\r\n    function proposeAd(uint256 adId) external {\r\n        _proposeAd(adId);\r\n        setState(adId, true);\r\n    }\r\n\r\n    function publishAd(uint256 adId) external {\r\n        require(state(adId) == ProposalState.APPROVED);\r\n        setState(adId, false);\r\n        _publishAd(adId);\r\n    }\r\n\r\n    // ========== Publishers Functions =========== //\r\n\r\n    function claimAppReward(uint256 appId, uint256 amount) external {\r\n        address publisher = _claimAppReward(appId, amount);\r\n\r\n        _turpleTorken.transfer(publisher, amount);\r\n    }\r\n\r\n    // ========== Validators Functions =========== //\r\n\r\n    function voteAdUp(uint256 adId) external {\r\n        require(_ads[adId].state == AdState.PROPOSED);\r\n        _voteUp(adId);\r\n    }\r\n\r\n    function voteAdDown(uint256 adId) external {\r\n        require(_ads[adId].state == AdState.PROPOSED);\r\n        _voteDown(adId);\r\n    }\r\n\r\n    function joinValidator() external {\r\n        uint256 amount = _joinValidatorNode();\r\n\r\n        address account = _msgSender();\r\n        _turpleTorken.transferFrom(account, address(this), amount);\r\n    }\r\n\r\n    function claimValidatorReward() external {\r\n        _claimValidatorReward();\r\n    }\r\n\r\n    function exitValidator() external {\r\n        (uint256 amount, uint256 unClaimedReward) = _exitValidatorNode();\r\n\r\n        address account = _msgSender();\r\n        _turpleTorken.transfer(account, (amount + unClaimedReward));\r\n    }\r\n}\r\n",
  "sourcePath": "C:\\Users\\DELL\\Documents\\turple\\smart-contracts\\contracts\\TurpleCore.sol",
  "compiler": {
    "name": "solc",
    "version": "0.8.17+commit.8df45f5f.Emscripten.clang"
  },
  "schemaVersion": "3.4.11",
  "updatedAt": "2023-05-30T04:17:44.518Z",
  "networkType": "ethereum",
  "devdoc": {
    "kind": "dev",
    "methods": {
      "acceptOwnership()": {
        "details": "The new owner accepts the ownership transfer."
      },
      "approve(uint256)": {
        "details": "function to vote up an ads campaign proposal "
      },
      "disapprove(uint256)": {
        "details": "function to vote down an ads campaign proposal "
      },
      "owner()": {
        "details": "Returns the address of the current owner."
      },
      "pendingOwner()": {
        "details": "Returns the address of the pending owner."
      },
      "renounceOwnership()": {
        "details": "Leaves the contract without owner. It will not be possible to call `onlyOwner` functions anymore. Can only be called by the current owner. NOTE: Renouncing ownership will leave the contract without an owner, thereby removing any functionality that is only available to the owner."
      },
      "state(uint256)": {
        "details": "true means campaign proposal was approved by validators or vice versa "
      },
      "transferOwnership(address)": {
        "details": "Starts the ownership transfer of the contract to a new account. Replaces the pending transfer if there is one. Can only be called by the current owner."
      }
    },
    "version": 1
  },
  "userdoc": {
    "kind": "user",
    "methods": {},
    "version": 1
  }
}